{
  "_format": "hh-sol-artifact-1",
  "contractName": "CustomisedNFT",
  "sourceName": "contracts/CustomisedNFT.sol",
  "abi": [
    {
      "inputs": [],
      "stateMutability": "payable",
      "type": "constructor"
    },
    {
      "anonymous": false,
      "inputs": [
        {
          "indexed": true,
          "internalType": "address",
          "name": "owner",
          "type": "address"
        },
        {
          "indexed": true,
          "internalType": "address",
          "name": "approved",
          "type": "address"
        },
        {
          "indexed": true,
          "internalType": "uint256",
          "name": "tokenId",
          "type": "uint256"
        }
      ],
      "name": "Approval",
      "type": "event"
    },
    {
      "anonymous": false,
      "inputs": [
        {
          "indexed": true,
          "internalType": "address",
          "name": "owner",
          "type": "address"
        },
        {
          "indexed": true,
          "internalType": "address",
          "name": "operator",
          "type": "address"
        },
        {
          "indexed": false,
          "internalType": "bool",
          "name": "approved",
          "type": "bool"
        }
      ],
      "name": "ApprovalForAll",
      "type": "event"
    },
    {
      "anonymous": false,
      "inputs": [
        {
          "indexed": false,
          "internalType": "address",
          "name": "sender",
          "type": "address"
        },
        {
          "indexed": false,
          "internalType": "uint256",
          "name": "tokenId",
          "type": "uint256"
        }
      ],
      "name": "NewEpicNFTMinted",
      "type": "event"
    },
    {
      "anonymous": false,
      "inputs": [
        {
          "indexed": true,
          "internalType": "address",
          "name": "from",
          "type": "address"
        },
        {
          "indexed": true,
          "internalType": "address",
          "name": "to",
          "type": "address"
        },
        {
          "indexed": true,
          "internalType": "uint256",
          "name": "tokenId",
          "type": "uint256"
        }
      ],
      "name": "Transfer",
      "type": "event"
    },
    {
      "inputs": [
        {
          "internalType": "address",
          "name": "to",
          "type": "address"
        },
        {
          "internalType": "uint256",
          "name": "tokenId",
          "type": "uint256"
        }
      ],
      "name": "approve",
      "outputs": [],
      "stateMutability": "nonpayable",
      "type": "function"
    },
    {
      "inputs": [
        {
          "internalType": "address",
          "name": "owner",
          "type": "address"
        }
      ],
      "name": "balanceOf",
      "outputs": [
        {
          "internalType": "uint256",
          "name": "",
          "type": "uint256"
        }
      ],
      "stateMutability": "view",
      "type": "function"
    },
    {
      "inputs": [
        {
          "internalType": "uint256",
          "name": "tokenId",
          "type": "uint256"
        }
      ],
      "name": "getApproved",
      "outputs": [
        {
          "internalType": "address",
          "name": "",
          "type": "address"
        }
      ],
      "stateMutability": "view",
      "type": "function"
    },
    {
      "inputs": [
        {
          "internalType": "address",
          "name": "owner",
          "type": "address"
        },
        {
          "internalType": "address",
          "name": "operator",
          "type": "address"
        }
      ],
      "name": "isApprovedForAll",
      "outputs": [
        {
          "internalType": "bool",
          "name": "",
          "type": "bool"
        }
      ],
      "stateMutability": "view",
      "type": "function"
    },
    {
      "inputs": [],
      "name": "isOwner",
      "outputs": [
        {
          "internalType": "bool",
          "name": "",
          "type": "bool"
        }
      ],
      "stateMutability": "view",
      "type": "function"
    },
    {
      "inputs": [
        {
          "internalType": "string",
          "name": "first",
          "type": "string"
        },
        {
          "internalType": "string",
          "name": "second",
          "type": "string"
        },
        {
          "internalType": "string",
          "name": "third",
          "type": "string"
        },
        {
          "internalType": "string",
          "name": "color",
          "type": "string"
        }
      ],
      "name": "makeAnEpicNFT",
      "outputs": [],
      "stateMutability": "nonpayable",
      "type": "function"
    },
    {
      "inputs": [],
      "name": "name",
      "outputs": [
        {
          "internalType": "string",
          "name": "",
          "type": "string"
        }
      ],
      "stateMutability": "view",
      "type": "function"
    },
    {
      "inputs": [],
      "name": "owner",
      "outputs": [
        {
          "internalType": "address payable",
          "name": "",
          "type": "address"
        }
      ],
      "stateMutability": "view",
      "type": "function"
    },
    {
      "inputs": [
        {
          "internalType": "uint256",
          "name": "tokenId",
          "type": "uint256"
        }
      ],
      "name": "ownerOf",
      "outputs": [
        {
          "internalType": "address",
          "name": "",
          "type": "address"
        }
      ],
      "stateMutability": "view",
      "type": "function"
    },
    {
      "inputs": [
        {
          "internalType": "address",
          "name": "from",
          "type": "address"
        },
        {
          "internalType": "address",
          "name": "to",
          "type": "address"
        },
        {
          "internalType": "uint256",
          "name": "tokenId",
          "type": "uint256"
        }
      ],
      "name": "safeTransferFrom",
      "outputs": [],
      "stateMutability": "nonpayable",
      "type": "function"
    },
    {
      "inputs": [
        {
          "internalType": "address",
          "name": "from",
          "type": "address"
        },
        {
          "internalType": "address",
          "name": "to",
          "type": "address"
        },
        {
          "internalType": "uint256",
          "name": "tokenId",
          "type": "uint256"
        },
        {
          "internalType": "bytes",
          "name": "_data",
          "type": "bytes"
        }
      ],
      "name": "safeTransferFrom",
      "outputs": [],
      "stateMutability": "nonpayable",
      "type": "function"
    },
    {
      "inputs": [
        {
          "internalType": "address",
          "name": "operator",
          "type": "address"
        },
        {
          "internalType": "bool",
          "name": "approved",
          "type": "bool"
        }
      ],
      "name": "setApprovalForAll",
      "outputs": [],
      "stateMutability": "nonpayable",
      "type": "function"
    },
    {
      "inputs": [
        {
          "internalType": "bytes4",
          "name": "interfaceId",
          "type": "bytes4"
        }
      ],
      "name": "supportsInterface",
      "outputs": [
        {
          "internalType": "bool",
          "name": "",
          "type": "bool"
        }
      ],
      "stateMutability": "view",
      "type": "function"
    },
    {
      "inputs": [],
      "name": "symbol",
      "outputs": [
        {
          "internalType": "string",
          "name": "",
          "type": "string"
        }
      ],
      "stateMutability": "view",
      "type": "function"
    },
    {
      "inputs": [
        {
          "internalType": "uint256",
          "name": "tokenId",
          "type": "uint256"
        }
      ],
      "name": "tokenURI",
      "outputs": [
        {
          "internalType": "string",
          "name": "",
          "type": "string"
        }
      ],
      "stateMutability": "view",
      "type": "function"
    },
    {
      "inputs": [
        {
          "internalType": "address",
          "name": "from",
          "type": "address"
        },
        {
          "internalType": "address",
          "name": "to",
          "type": "address"
        },
        {
          "internalType": "uint256",
          "name": "tokenId",
          "type": "uint256"
        }
      ],
      "name": "transferFrom",
      "outputs": [],
      "stateMutability": "nonpayable",
      "type": "function"
    },
    {
      "inputs": [],
      "name": "withdraw",
      "outputs": [],
      "stateMutability": "nonpayable",
      "type": "function"
    }
  ],
  "bytecode": "0x608060405260405180610100016040528060da815260200162003d7060da9139600890805190602001906200003692919062000267565b5060405180608001604052806056815260200162003e4a60569139600990805190602001906200006892919062000267565b506040518060400160405280600981526020017f5371756172654e465400000000000000000000000000000000000000000000008152506040518060400160405280600681526020017f53515541524500000000000000000000000000000000000000000000000000008152508160009080519060200190620000ed92919062000267565b5080600190805190602001906200010692919062000267565b505050620001546040518060400160405280601e81526020017f54686973206973206d79204e465420636f6e74726163742e2057686f612100008152506200019b60201b62000e9c1760201c565b33600a60006101000a81548173ffffffffffffffffffffffffffffffffffffffff021916908373ffffffffffffffffffffffffffffffffffffffff16021790555062000444565b6200023b81604051602401620001b2919062000358565b6040516020818303038152906040527f41304fac000000000000000000000000000000000000000000000000000000007bffffffffffffffffffffffffffffffffffffffffffffffffffffffff19166020820180517bffffffffffffffffffffffffffffffffffffffffffffffffffffffff83818316178352505050506200023e60201b60201c565b50565b60008151905060006a636f6e736f6c652e6c6f679050602083016000808483855afa5050505050565b8280546200027590620003ce565b90600052602060002090601f016020900481019282620002995760008555620002e5565b82601f10620002b457805160ff1916838001178555620002e5565b82800160010185558215620002e5579182015b82811115620002e4578251825591602001919060010190620002c7565b5b509050620002f49190620002f8565b5090565b5b8082111562000313576000816000905550600101620002f9565b5090565b600062000324826200037c565b62000330818562000387565b93506200034281856020860162000398565b6200034d8162000433565b840191505092915050565b6000602082019050818103600083015262000374818462000317565b905092915050565b600081519050919050565b600082825260208201905092915050565b60005b83811015620003b85780820151818401526020810190506200039b565b83811115620003c8576000848401525b50505050565b60006002820490506001821680620003e757607f821691505b60208210811415620003fe57620003fd62000404565b5b50919050565b7f4e487b7100000000000000000000000000000000000000000000000000000000600052602260045260246000fd5b6000601f19601f8301169050919050565b61391c80620004546000396000f3fe608060405234801561001057600080fd5b506004361061010b5760003560e01c806370a08231116100a257806395d89b411161007157806395d89b41146102a4578063a22cb465146102c2578063b88d4fde146102de578063c87b56dd146102fa578063e985e9c51461032a5761010b565b806370a082311461021c5780637290795a1461024c5780638da5cb5b146102685780638f32d59b146102865761010b565b806323b872dd116100de57806323b872dd146101aa5780633ccfd60b146101c657806342842e0e146101d05780636352211e146101ec5761010b565b806301ffc9a71461011057806306fdde0314610140578063081812fc1461015e578063095ea7b31461018e575b600080fd5b61012a600480360381019061012591906122fd565b61035a565b6040516101379190612aa6565b60405180910390f35b61014861043c565b6040516101559190612ac1565b60405180910390f35b61017860048036038101906101739190612412565b6104ce565b60405161018591906129fb565b60405180910390f35b6101a860048036038101906101a391906122c1565b610553565b005b6101c460048036038101906101bf91906121bb565b61066b565b005b6101ce6106cb565b005b6101ea60048036038101906101e591906121bb565b610791565b005b61020660048036038101906102019190612412565b6107b1565b60405161021391906129fb565b60405180910390f35b61023660048036038101906102319190612156565b610863565b6040516102439190612d61565b60405180910390f35b6102666004803603810190610261919061234f565b61091b565b005b610270610b2e565b60405161027d9190612a16565b60405180910390f35b61028e610b54565b60405161029b9190612aa6565b60405180910390f35b6102ac610bac565b6040516102b99190612ac1565b60405180910390f35b6102dc60048036038101906102d79190612285565b610c3e565b005b6102f860048036038101906102f3919061220a565b610c54565b005b610314600480360381019061030f9190612412565b610cb6565b6040516103219190612ac1565b60405180910390f35b610344600480360381019061033f919061217f565b610e08565b6040516103519190612aa6565b60405180910390f35b60007f80ac58cd000000000000000000000000000000000000000000000000000000007bffffffffffffffffffffffffffffffffffffffffffffffffffffffff1916827bffffffffffffffffffffffffffffffffffffffffffffffffffffffff1916148061042557507f5b5e139f000000000000000000000000000000000000000000000000000000007bffffffffffffffffffffffffffffffffffffffffffffffffffffffff1916827bffffffffffffffffffffffffffffffffffffffffffffffffffffffff1916145b80610435575061043482610f35565b5b9050919050565b60606000805461044b90613043565b80601f016020809104026020016040519081016040528092919081815260200182805461047790613043565b80156104c45780601f10610499576101008083540402835291602001916104c4565b820191906000526020600020905b8154815290600101906020018083116104a757829003601f168201915b5050505050905090565b60006104d982610f9f565b610518576040517f08c379a000000000000000000000000000000000000000000000000000000000815260040161050f90612cc1565b60405180910390fd5b6004600083815260200190815260200160002060009054906101000a900473ffffffffffffffffffffffffffffffffffffffff169050919050565b600061055e826107b1565b90508073ffffffffffffffffffffffffffffffffffffffff168373ffffffffffffffffffffffffffffffffffffffff1614156105cf576040517f08c379a00000000000000000000000000000000000000000000000000000000081526004016105c690612d01565b60405180910390fd5b8073ffffffffffffffffffffffffffffffffffffffff166105ee61100b565b73ffffffffffffffffffffffffffffffffffffffff16148061061d575061061c8161061761100b565b610e08565b5b61065c576040517f08c379a000000000000000000000000000000000000000000000000000000000815260040161065390612be1565b60405180910390fd5b6106668383611013565b505050565b61067c61067661100b565b826110cc565b6106bb576040517f08c379a00000000000000000000000000000000000000000000000000000000081526004016106b290612d21565b60405180910390fd5b6106c68383836111aa565b505050565b6106d3610b54565b6106dc57600080fd5b600047905060003373ffffffffffffffffffffffffffffffffffffffff1682604051610707906129e6565b60006040518083038185875af1925050503d8060008114610744576040519150601f19603f3d011682016040523d82523d6000602084013e610749565b606091505b505090508061078d576040517f08c379a000000000000000000000000000000000000000000000000000000000815260040161078490612d41565b60405180910390fd5b5050565b6107ac83838360405180602001604052806000815250610c54565b505050565b6000806002600084815260200190815260200160002060009054906101000a900473ffffffffffffffffffffffffffffffffffffffff169050600073ffffffffffffffffffffffffffffffffffffffff168173ffffffffffffffffffffffffffffffffffffffff16141561085a576040517f08c379a000000000000000000000000000000000000000000000000000000000815260040161085190612c21565b60405180910390fd5b80915050919050565b60008073ffffffffffffffffffffffffffffffffffffffff168273ffffffffffffffffffffffffffffffffffffffff1614156108d4576040517f08c379a00000000000000000000000000000000000000000000000000000000081526004016108cb90612c01565b60405180910390fd5b600360008373ffffffffffffffffffffffffffffffffffffffff1673ffffffffffffffffffffffffffffffffffffffff168152602001908152602001600020549050919050565b60326109276007611411565b1115610968576040517f08c379a000000000000000000000000000000000000000000000000000000000815260040161095f90612c61565b60405180910390fd5b60006109746007611411565b9050600085858560405160200161098d93929190612905565b604051602081830303815290604052905060006008846009846040516020016109b99493929190612936565b604051602081830303815290604052905060006109fe836109d98461141f565b6040516020016109ea92919061297f565b60405160208183030381529060405261141f565b9050600081604051602001610a1391906129c4565b6040516020818303038152906040529050610a626040518060400160405280601c81526020017f0a2d2d2d2d2d2d2d2d2d2d2d2d2d2d2d2d2d2d2d2d2d2d2d2d2d2d2d00000000815250610e9c565b610a6b81610e9c565b610aa96040518060400160405280601c81526020017f2d2d2d2d2d2d2d2d2d2d2d2d2d2d2d2d2d2d2d2d2d2d2d2d2d2d2d0a00000000815250610e9c565b610ab333866115dd565b610abd85826115fb565b610ac7600761166f565b610aea604051806060016040528060258152602001613882602591398633611685565b7febb98688741ffa4c7589bf325de30cf7becb63de567842e1ccdb6cb949fdc82c3386604051610b1b929190612a7d565b60405180910390a1505050505050505050565b600a60009054906101000a900473ffffffffffffffffffffffffffffffffffffffff1681565b6000600a60009054906101000a900473ffffffffffffffffffffffffffffffffffffffff1673ffffffffffffffffffffffffffffffffffffffff163373ffffffffffffffffffffffffffffffffffffffff1614905090565b606060018054610bbb90613043565b80601f0160208091040260200160405190810160405280929190818152602001828054610be790613043565b8015610c345780601f10610c0957610100808354040283529160200191610c34565b820191906000526020600020905b815481529060010190602001808311610c1757829003601f168201915b5050505050905090565b610c50610c4961100b565b8383611724565b5050565b610c65610c5f61100b565b836110cc565b610ca4576040517f08c379a0000000000000000000000000000000000000000000000000000000008152600401610c9b90612d21565b60405180910390fd5b610cb084848484611891565b50505050565b6060610cc182610f9f565b610d00576040517f08c379a0000000000000000000000000000000000000000000000000000000008152600401610cf790612ca1565b60405180910390fd5b6000600660008481526020019081526020016000208054610d2090613043565b80601f0160208091040260200160405190810160405280929190818152602001828054610d4c90613043565b8015610d995780601f10610d6e57610100808354040283529160200191610d99565b820191906000526020600020905b815481529060010190602001808311610d7c57829003601f168201915b505050505090506000610daa6118ed565b9050600081511415610dc0578192505050610e03565b600082511115610df5578082604051602001610ddd9291906128e1565b60405160208183030381529060405292505050610e03565b610dfe84611904565b925050505b919050565b6000600560008473ffffffffffffffffffffffffffffffffffffffff1673ffffffffffffffffffffffffffffffffffffffff16815260200190815260200160002060008373ffffffffffffffffffffffffffffffffffffffff1673ffffffffffffffffffffffffffffffffffffffff16815260200190815260200160002060009054906101000a900460ff16905092915050565b610f3281604051602401610eb09190612ac1565b6040516020818303038152906040527f41304fac000000000000000000000000000000000000000000000000000000007bffffffffffffffffffffffffffffffffffffffffffffffffffffffff19166020820180517bffffffffffffffffffffffffffffffffffffffffffffffffffffffff83818316178352505050506119ab565b50565b60007f01ffc9a7000000000000000000000000000000000000000000000000000000007bffffffffffffffffffffffffffffffffffffffffffffffffffffffff1916827bffffffffffffffffffffffffffffffffffffffffffffffffffffffff1916149050919050565b60008073ffffffffffffffffffffffffffffffffffffffff166002600084815260200190815260200160002060009054906101000a900473ffffffffffffffffffffffffffffffffffffffff1673ffffffffffffffffffffffffffffffffffffffff1614159050919050565b600033905090565b816004600083815260200190815260200160002060006101000a81548173ffffffffffffffffffffffffffffffffffffffff021916908373ffffffffffffffffffffffffffffffffffffffff160217905550808273ffffffffffffffffffffffffffffffffffffffff16611086836107b1565b73ffffffffffffffffffffffffffffffffffffffff167f8c5be1e5ebec7d5bd14f71427d1e84f3dd0314c0f7b2291e5b200ac8c7c3b92560405160405180910390a45050565b60006110d782610f9f565b611116576040517f08c379a000000000000000000000000000000000000000000000000000000000815260040161110d90612bc1565b60405180910390fd5b6000611121836107b1565b90508073ffffffffffffffffffffffffffffffffffffffff168473ffffffffffffffffffffffffffffffffffffffff16148061119057508373ffffffffffffffffffffffffffffffffffffffff16611178846104ce565b73ffffffffffffffffffffffffffffffffffffffff16145b806111a157506111a08185610e08565b5b91505092915050565b8273ffffffffffffffffffffffffffffffffffffffff166111ca826107b1565b73ffffffffffffffffffffffffffffffffffffffff1614611220576040517f08c379a000000000000000000000000000000000000000000000000000000000815260040161121790612b41565b60405180910390fd5b600073ffffffffffffffffffffffffffffffffffffffff168273ffffffffffffffffffffffffffffffffffffffff161415611290576040517f08c379a000000000000000000000000000000000000000000000000000000000815260040161128790612b81565b60405180910390fd5b61129b8383836119d4565b6112a6600082611013565b6001600360008573ffffffffffffffffffffffffffffffffffffffff1673ffffffffffffffffffffffffffffffffffffffff16815260200190815260200160002060008282546112f69190612f47565b925050819055506001600360008473ffffffffffffffffffffffffffffffffffffffff1673ffffffffffffffffffffffffffffffffffffffff168152602001908152602001600020600082825461134d9190612e66565b92505081905550816002600083815260200190815260200160002060006101000a81548173ffffffffffffffffffffffffffffffffffffffff021916908373ffffffffffffffffffffffffffffffffffffffff160217905550808273ffffffffffffffffffffffffffffffffffffffff168473ffffffffffffffffffffffffffffffffffffffff167fddf252ad1be2c89b69c2b068fc378daa952ba7f163c4a11628f55a4df523b3ef60405160405180910390a461140c8383836119d9565b505050565b600081600001549050919050565b6060600082519050600081141561144857604051806020016040528060008152509150506115d8565b600060036002836114599190612e66565b6114639190612ebc565b600461146f9190612eed565b905060006020826114809190612e66565b67ffffffffffffffff8111156114bf577f4e487b7100000000000000000000000000000000000000000000000000000000600052604160045260246000fd5b6040519080825280601f01601f1916602001820160405280156114f15781602001600182028036833780820191505090505b50905060006040518060600160405280604081526020016138a7604091399050600181016020830160005b868110156115955760038101905062ffffff818a015116603f8160121c168401518060081b905060ff603f83600c1c1686015116810190508060081b905060ff603f8360061c1686015116810190508060081b905060ff603f831686015116810190508060e01b9050808452600484019350505061151c565b5060038606600181146115af57600281146115bf576115ca565b613d3d60f01b60028303526115ca565b603d60f81b60018303525b508484525050819450505050505b919050565b6115f78282604051806020016040528060008152506119de565b5050565b61160482610f9f565b611643576040517f08c379a000000000000000000000000000000000000000000000000000000000815260040161163a90612c41565b60405180910390fd5b8060066000848152602001908152602001600020908051906020019061166a929190611f7a565b505050565b6001816000016000828254019250508190555050565b61171f83838360405160240161169d93929190612ae3565b6040516020818303038152906040527fe3849f79000000000000000000000000000000000000000000000000000000007bffffffffffffffffffffffffffffffffffffffffffffffffffffffff19166020820180517bffffffffffffffffffffffffffffffffffffffffffffffffffffffff83818316178352505050506119ab565b505050565b8173ffffffffffffffffffffffffffffffffffffffff168373ffffffffffffffffffffffffffffffffffffffff161415611793576040517f08c379a000000000000000000000000000000000000000000000000000000000815260040161178a90612ba1565b60405180910390fd5b80600560008573ffffffffffffffffffffffffffffffffffffffff1673ffffffffffffffffffffffffffffffffffffffff16815260200190815260200160002060008473ffffffffffffffffffffffffffffffffffffffff1673ffffffffffffffffffffffffffffffffffffffff16815260200190815260200160002060006101000a81548160ff0219169083151502179055508173ffffffffffffffffffffffffffffffffffffffff168373ffffffffffffffffffffffffffffffffffffffff167f17307eab39ab6107e8899845ad3d59bd9653f200f220920489ca2b5937696c31836040516118849190612aa6565b60405180910390a3505050565b61189c8484846111aa565b6118a884848484611a39565b6118e7576040517f08c379a00000000000000000000000000000000000000000000000000000000081526004016118de90612b21565b60405180910390fd5b50505050565b606060405180602001604052806000815250905090565b606061190f82610f9f565b61194e576040517f08c379a000000000000000000000000000000000000000000000000000000000815260040161194590612ce1565b60405180910390fd5b60006119586118ed565b9050600081511161197857604051806020016040528060008152506119a3565b8061198284611bd0565b6040516020016119939291906128e1565b6040516020818303038152906040525b915050919050565b60008151905060006a636f6e736f6c652e6c6f679050602083016000808483855afa5050505050565b505050565b505050565b6119e88383611d7d565b6119f56000848484611a39565b611a34576040517f08c379a0000000000000000000000000000000000000000000000000000000008152600401611a2b90612b21565b60405180910390fd5b505050565b6000611a5a8473ffffffffffffffffffffffffffffffffffffffff16611f57565b15611bc3578373ffffffffffffffffffffffffffffffffffffffff1663150b7a02611a8361100b565b8786866040518563ffffffff1660e01b8152600401611aa59493929190612a31565b602060405180830381600087803b158015611abf57600080fd5b505af1925050508015611af057506040513d601f19601f82011682018060405250810190611aed9190612326565b60015b611b73573d8060008114611b20576040519150601f19603f3d011682016040523d82523d6000602084013e611b25565b606091505b50600081511415611b6b576040517f08c379a0000000000000000000000000000000000000000000000000000000008152600401611b6290612b21565b60405180910390fd5b805181602001fd5b63150b7a0260e01b7bffffffffffffffffffffffffffffffffffffffffffffffffffffffff1916817bffffffffffffffffffffffffffffffffffffffffffffffffffffffff191614915050611bc8565b600190505b949350505050565b60606000821415611c18576040518060400160405280600181526020017f30000000000000000000000000000000000000000000000000000000000000008152509050611d78565b600082905060005b60008214611c4a578080611c33906130a6565b915050600a82611c439190612ebc565b9150611c20565b60008167ffffffffffffffff811115611c8c577f4e487b7100000000000000000000000000000000000000000000000000000000600052604160045260246000fd5b6040519080825280601f01601f191660200182016040528015611cbe5781602001600182028036833780820191505090505b5090505b60008514611d7157600182611cd79190612f47565b9150600a85611ce691906130ef565b6030611cf29190612e66565b60f81b818381518110611d2e577f4e487b7100000000000000000000000000000000000000000000000000000000600052603260045260246000fd5b60200101907effffffffffffffffffffffffffffffffffffffffffffffffffffffffffffff1916908160001a905350600a85611d6a9190612ebc565b9450611cc2565b8093505050505b919050565b600073ffffffffffffffffffffffffffffffffffffffff168273ffffffffffffffffffffffffffffffffffffffff161415611ded576040517f08c379a0000000000000000000000000000000000000000000000000000000008152600401611de490612c81565b60405180910390fd5b611df681610f9f565b15611e36576040517f08c379a0000000000000000000000000000000000000000000000000000000008152600401611e2d90612b61565b60405180910390fd5b611e42600083836119d4565b6001600360008473ffffffffffffffffffffffffffffffffffffffff1673ffffffffffffffffffffffffffffffffffffffff1681526020019081526020016000206000828254611e929190612e66565b92505081905550816002600083815260200190815260200160002060006101000a81548173ffffffffffffffffffffffffffffffffffffffff021916908373ffffffffffffffffffffffffffffffffffffffff160217905550808273ffffffffffffffffffffffffffffffffffffffff16600073ffffffffffffffffffffffffffffffffffffffff167fddf252ad1be2c89b69c2b068fc378daa952ba7f163c4a11628f55a4df523b3ef60405160405180910390a4611f53600083836119d9565b5050565b6000808273ffffffffffffffffffffffffffffffffffffffff163b119050919050565b828054611f8690613043565b90600052602060002090601f016020900481019282611fa85760008555611fef565b82601f10611fc157805160ff1916838001178555611fef565b82800160010185558215611fef579182015b82811115611fee578251825591602001919060010190611fd3565b5b509050611ffc9190612000565b5090565b5b80821115612019576000816000905550600101612001565b5090565b600061203061202b84612da1565b612d7c565b90508281526020810184848401111561204857600080fd5b612053848285613001565b509392505050565b600061206e61206984612dd2565b612d7c565b90508281526020810184848401111561208657600080fd5b612091848285613001565b509392505050565b6000813590506120a881613825565b92915050565b6000813590506120bd8161383c565b92915050565b6000813590506120d281613853565b92915050565b6000815190506120e781613853565b92915050565b600082601f8301126120fe57600080fd5b813561210e84826020860161201d565b91505092915050565b600082601f83011261212857600080fd5b813561213884826020860161205b565b91505092915050565b6000813590506121508161386a565b92915050565b60006020828403121561216857600080fd5b600061217684828501612099565b91505092915050565b6000806040838503121561219257600080fd5b60006121a085828601612099565b92505060206121b185828601612099565b9150509250929050565b6000806000606084860312156121d057600080fd5b60006121de86828701612099565b93505060206121ef86828701612099565b925050604061220086828701612141565b9150509250925092565b6000806000806080858703121561222057600080fd5b600061222e87828801612099565b945050602061223f87828801612099565b935050604061225087828801612141565b925050606085013567ffffffffffffffff81111561226d57600080fd5b612279878288016120ed565b91505092959194509250565b6000806040838503121561229857600080fd5b60006122a685828601612099565b92505060206122b7858286016120ae565b9150509250929050565b600080604083850312156122d457600080fd5b60006122e285828601612099565b92505060206122f385828601612141565b9150509250929050565b60006020828403121561230f57600080fd5b600061231d848285016120c3565b91505092915050565b60006020828403121561233857600080fd5b6000612346848285016120d8565b91505092915050565b6000806000806080858703121561236557600080fd5b600085013567ffffffffffffffff81111561237f57600080fd5b61238b87828801612117565b945050602085013567ffffffffffffffff8111156123a857600080fd5b6123b487828801612117565b935050604085013567ffffffffffffffff8111156123d157600080fd5b6123dd87828801612117565b925050606085013567ffffffffffffffff8111156123fa57600080fd5b61240687828801612117565b91505092959194509250565b60006020828403121561242457600080fd5b600061243284828501612141565b91505092915050565b61244481612f8d565b82525050565b61245381612f7b565b82525050565b61246281612f9f565b82525050565b600061247382612e18565b61247d8185612e2e565b935061248d818560208601613010565b612496816131dc565b840191505092915050565b60006124ac82612e23565b6124b68185612e4a565b93506124c6818560208601613010565b6124cf816131dc565b840191505092915050565b60006124e582612e23565b6124ef8185612e5b565b93506124ff818560208601613010565b80840191505092915050565b6000815461251881613043565b6125228186612e5b565b9450600182166000811461253d576001811461254e57612581565b60ff19831686528186019350612581565b61255785612e03565b60005b838110156125795781548189015260018201915060208101905061255a565b838801955050505b50505092915050565b6000612597603283612e4a565b91506125a2826131ed565b604082019050919050565b60006125ba602583612e4a565b91506125c58261323c565b604082019050919050565b60006125dd601c83612e4a565b91506125e88261328b565b602082019050919050565b6000612600602483612e4a565b915061260b826132b4565b604082019050919050565b6000612623601983612e4a565b915061262e82613303565b602082019050919050565b6000612646602c83612e4a565b91506126518261332c565b604082019050919050565b6000612669600d83612e5b565b91506126748261337b565b600d82019050919050565b600061268c603883612e4a565b9150612697826133a4565b604082019050919050565b60006126af602a83612e4a565b91506126ba826133f3565b604082019050919050565b60006126d2602983612e4a565b91506126dd82613442565b604082019050919050565b60006126f5602e83612e4a565b915061270082613491565b604082019050919050565b6000612718600283612e5b565b9150612723826134e0565b600282019050919050565b600061273b602183612e4a565b915061274682613509565b604082019050919050565b600061275e602083612e4a565b915061276982613558565b602082019050919050565b6000612781603183612e4a565b915061278c82613581565b604082019050919050565b60006127a4602c83612e4a565b91506127af826135d0565b604082019050919050565b60006127c7606b83612e5b565b91506127d28261361f565b606b82019050919050565b60006127ea602f83612e4a565b91506127f5826136ba565b604082019050919050565b600061280d600a83612e5b565b915061281882613709565b600a82019050919050565b6000612830602183612e4a565b915061283b82613732565b604082019050919050565b6000612853601d83612e5b565b915061285e82613781565b601d82019050919050565b6000612876600083612e3f565b9150612881826137aa565b600082019050919050565b6000612899603183612e4a565b91506128a4826137ad565b604082019050919050565b60006128bc601883612e4a565b91506128c7826137fc565b602082019050919050565b6128db81612ff7565b82525050565b60006128ed82856124da565b91506128f982846124da565b91508190509392505050565b600061291182866124da565b915061291d82856124da565b915061292982846124da565b9150819050949350505050565b6000612942828761250b565b915061294e82866124da565b915061295a828561250b565b915061296682846124da565b91506129718261265c565b915081905095945050505050565b600061298a82612800565b915061299682856124da565b91506129a1826127ba565b91506129ad82846124da565b91506129b88261270b565b91508190509392505050565b60006129cf82612846565b91506129db82846124da565b915081905092915050565b60006129f182612869565b9150819050919050565b6000602082019050612a10600083018461244a565b92915050565b6000602082019050612a2b600083018461243b565b92915050565b6000608082019050612a46600083018761244a565b612a53602083018661244a565b612a6060408301856128d2565b8181036060830152612a728184612468565b905095945050505050565b6000604082019050612a92600083018561244a565b612a9f60208301846128d2565b9392505050565b6000602082019050612abb6000830184612459565b92915050565b60006020820190508181036000830152612adb81846124a1565b905092915050565b60006060820190508181036000830152612afd81866124a1565b9050612b0c60208301856128d2565b612b19604083018461244a565b949350505050565b60006020820190508181036000830152612b3a8161258a565b9050919050565b60006020820190508181036000830152612b5a816125ad565b9050919050565b60006020820190508181036000830152612b7a816125d0565b9050919050565b60006020820190508181036000830152612b9a816125f3565b9050919050565b60006020820190508181036000830152612bba81612616565b9050919050565b60006020820190508181036000830152612bda81612639565b9050919050565b60006020820190508181036000830152612bfa8161267f565b9050919050565b60006020820190508181036000830152612c1a816126a2565b9050919050565b60006020820190508181036000830152612c3a816126c5565b9050919050565b60006020820190508181036000830152612c5a816126e8565b9050919050565b60006020820190508181036000830152612c7a8161272e565b9050919050565b60006020820190508181036000830152612c9a81612751565b9050919050565b60006020820190508181036000830152612cba81612774565b9050919050565b60006020820190508181036000830152612cda81612797565b9050919050565b60006020820190508181036000830152612cfa816127dd565b9050919050565b60006020820190508181036000830152612d1a81612823565b9050919050565b60006020820190508181036000830152612d3a8161288c565b9050919050565b60006020820190508181036000830152612d5a816128af565b9050919050565b6000602082019050612d7660008301846128d2565b92915050565b6000612d86612d97565b9050612d928282613075565b919050565b6000604051905090565b600067ffffffffffffffff821115612dbc57612dbb6131ad565b5b612dc5826131dc565b9050602081019050919050565b600067ffffffffffffffff821115612ded57612dec6131ad565b5b612df6826131dc565b9050602081019050919050565b60008190508160005260206000209050919050565b600081519050919050565b600081519050919050565b600082825260208201905092915050565b600081905092915050565b600082825260208201905092915050565b600081905092915050565b6000612e7182612ff7565b9150612e7c83612ff7565b9250827fffffffffffffffffffffffffffffffffffffffffffffffffffffffffffffffff03821115612eb157612eb0613120565b5b828201905092915050565b6000612ec782612ff7565b9150612ed283612ff7565b925082612ee257612ee161314f565b5b828204905092915050565b6000612ef882612ff7565b9150612f0383612ff7565b9250817fffffffffffffffffffffffffffffffffffffffffffffffffffffffffffffffff0483118215151615612f3c57612f3b613120565b5b828202905092915050565b6000612f5282612ff7565b9150612f5d83612ff7565b925082821015612f7057612f6f613120565b5b828203905092915050565b6000612f8682612fd7565b9050919050565b6000612f9882612fd7565b9050919050565b60008115159050919050565b60007fffffffff0000000000000000000000000000000000000000000000000000000082169050919050565b600073ffffffffffffffffffffffffffffffffffffffff82169050919050565b6000819050919050565b82818337600083830152505050565b60005b8381101561302e578082015181840152602081019050613013565b8381111561303d576000848401525b50505050565b6000600282049050600182168061305b57607f821691505b6020821081141561306f5761306e61317e565b5b50919050565b61307e826131dc565b810181811067ffffffffffffffff8211171561309d5761309c6131ad565b5b80604052505050565b60006130b182612ff7565b91507fffffffffffffffffffffffffffffffffffffffffffffffffffffffffffffffff8214156130e4576130e3613120565b5b600182019050919050565b60006130fa82612ff7565b915061310583612ff7565b9250826131155761311461314f565b5b828206905092915050565b7f4e487b7100000000000000000000000000000000000000000000000000000000600052601160045260246000fd5b7f4e487b7100000000000000000000000000000000000000000000000000000000600052601260045260246000fd5b7f4e487b7100000000000000000000000000000000000000000000000000000000600052602260045260246000fd5b7f4e487b7100000000000000000000000000000000000000000000000000000000600052604160045260246000fd5b6000601f19601f8301169050919050565b7f4552433732313a207472616e7366657220746f206e6f6e20455243373231526560008201527f63656976657220696d706c656d656e7465720000000000000000000000000000602082015250565b7f4552433732313a207472616e736665722066726f6d20696e636f72726563742060008201527f6f776e6572000000000000000000000000000000000000000000000000000000602082015250565b7f4552433732313a20746f6b656e20616c7265616479206d696e74656400000000600082015250565b7f4552433732313a207472616e7366657220746f20746865207a65726f2061646460008201527f7265737300000000000000000000000000000000000000000000000000000000602082015250565b7f4552433732313a20617070726f766520746f2063616c6c657200000000000000600082015250565b7f4552433732313a206f70657261746f7220717565727920666f72206e6f6e657860008201527f697374656e7420746f6b656e0000000000000000000000000000000000000000602082015250565b7f3c2f746578743e3c2f7376673e00000000000000000000000000000000000000600082015250565b7f4552433732313a20617070726f76652063616c6c6572206973206e6f74206f7760008201527f6e6572206e6f7220617070726f76656420666f7220616c6c0000000000000000602082015250565b7f4552433732313a2062616c616e636520717565727920666f7220746865207a6560008201527f726f206164647265737300000000000000000000000000000000000000000000602082015250565b7f4552433732313a206f776e657220717565727920666f72206e6f6e657869737460008201527f656e7420746f6b656e0000000000000000000000000000000000000000000000602082015250565b7f45524337323155524953746f726167653a2055524920736574206f66206e6f6e60008201527f6578697374656e7420746f6b656e000000000000000000000000000000000000602082015250565b7f227d000000000000000000000000000000000000000000000000000000000000600082015250565b7f596f752063616e2774206d696e74206d6f7265207468616e203530204e46547360008201527f2100000000000000000000000000000000000000000000000000000000000000602082015250565b7f4552433732313a206d696e7420746f20746865207a65726f2061646472657373600082015250565b7f45524337323155524953746f726167653a2055524920717565727920666f722060008201527f6e6f6e6578697374656e7420746f6b656e000000000000000000000000000000602082015250565b7f4552433732313a20617070726f76656420717565727920666f72206e6f6e657860008201527f697374656e7420746f6b656e0000000000000000000000000000000000000000602082015250565b7f222c20226465736372697074696f6e223a2022416e204e46542066726f6d207460008201527f686520657069632074687265652d776f72642d636f6d626f20636f6c6c65637460208201527f696f6e2e222c2022696d616765223a2022646174613a696d6167652f7376672b60408201527f786d6c3b6261736536342c000000000000000000000000000000000000000000606082015250565b7f4552433732314d657461646174613a2055524920717565727920666f72206e6f60008201527f6e6578697374656e7420746f6b656e0000000000000000000000000000000000602082015250565b7f7b226e616d65223a202200000000000000000000000000000000000000000000600082015250565b7f4552433732313a20617070726f76616c20746f2063757272656e74206f776e6560008201527f7200000000000000000000000000000000000000000000000000000000000000602082015250565b7f646174613a6170706c69636174696f6e2f6a736f6e3b6261736536342c000000600082015250565b50565b7f4552433732313a207472616e736665722063616c6c6572206973206e6f74206f60008201527f776e6572206e6f7220617070726f766564000000000000000000000000000000602082015250565b7f4661696c656420746f207769746864726177204d415449430000000000000000600082015250565b61382e81612f7b565b811461383957600080fd5b50565b61384581612f9f565b811461385057600080fd5b50565b61385c81612fab565b811461386757600080fd5b50565b61387381612ff7565b811461387e57600080fd5b5056fe416e204e465420772f20494420257320686173206265656e206d696e74656420746f2025734142434445464748494a4b4c4d4e4f505152535455565758595a6162636465666768696a6b6c6d6e6f707172737475767778797a303132333435363738392b2fa2646970667358221220e055c900f7e59a671e9b83cf5d0327b39ab6844a857ac9aeebd8eedfe5ac3ceb64736f6c634300080400333c73766720786d6c6e733d27687474703a2f2f7777772e77332e6f72672f323030302f73766727207072657365727665417370656374526174696f3d27784d696e594d696e206d656574272076696577426f783d273020302033353020333530273e3c7374796c653e2e62617365207b2066696c6c3a20234438443243423b20666f6e742d66616d696c793a2073616e732d73657269663b20666f6e742d73697a653a20323470783b207d3c2f7374796c653e3c726563742077696474683d273130302527206865696768743d2731303025272066696c6c3d27272f3e3c7465787420783d273530252720793d273530252720636c6173733d27626173652720646f6d696e616e742d626173656c696e653d276d6964646c652720746578742d616e63686f723d276d6964646c65273e",
  "linkReferences": {},
  "deployedLinkReferences": {}
}